:040000000C94380024
:100004000C9400000C9400000C9400000C9400006C
:100014000C9400000C9400000C9400000C9400005C
:100024000C9400000C9400000C9400000C9400004C
:100034000C9400000C9400000C9400000C9400003C
:100044000C9400000C9400000C9400000C9400002C
:100054001027E80364000A000100001000011000EA
:10006400010080C00200600166000000F894EE27E1
:10007400ECBBF1E0FBBFEBBFE5BF8DE0A2E0BB272B
:10008400ED938A95E9F780E094E0A0E6ED9301977B
:10009400E9F7E8E6F0E085919591009761F0A59184
:1000A400B59105901590BF01F00105900D9201974F
:1000B400E1F7FB01F0CFEFE5EDBFE4E0EEBFC0E612
:1000C400D1E00C9465006697E8E4E88BE5E6E98BFB
:1000D400ECE6EA8BEB8BEFE6EC8BE0E0ED8BEABB36
:1000E400EBBBE7BBE8BBE4BBE5BBE1BBE2BB0E9407
:1000F4007701A0E1B5D0E0EAEA93E9E1EA93FE01F1
:100104007296FA93EA93A6E00FD0E0EAEA93E9E163
:10011400EA93FE013296FA93EA93A6E01CD06ED0DD
:10012400DE018DD0FFCFFFCF0E946001E881E15056
:10013400E883EF5F49F0A981BA81ED91A983BA837D
:10014400AE2F0E94B001F2CF0E948B01A5E0B0E077
:100154000E94C80124C00E9460010E947C01EC81BD
:10016400E160AE2F0E94B001E881E150E88379F0AC
:10017400E981FA813196E983FA833197FF93EF930A
:10018400A1E00E949501AF91BF91EC93EDCFA0E067
:100194000E949501A981BA81EC930E948B01259656
:1001A4000895AA93EBB3EF70AE2FE881E07FEA2BBA
:1001B400EBBB8DE08A95F1F7DA9A8DE08A95F1F739
:1001C400DA988DE08A95F1F777C0AA93A881E9DFE0
:1001D400E881E295E883A881E4DF85E88A95F1F770
:1001E4006BC0AA93E881F0E0E05AFE4FE081A98158
:1001F400AE0FEBDF5980488022960895A2E00E945A
:100204006901ACE0E2DFA1E00E946901E0E04E2E6A
:100214005E2E0895AA93A881AA3011F0571448F0CD
:10022400E0E0EA934394A42DDCDFA881AA3009F42A
:1002340043C05394D89AA881C8DFD8983DC0BA93D4
:10024400AA931A93A981BA81ED91A983BA831E2F27
:10025400E03019F0A12FDEDFF5CF18812396089541
:10026400AA93EAB3E06FEABBD29AD09AD19ADA9809
:10027400D898D9987880E881E058E0936201E881C1
:10028400E054E0936301A4E1B0E00E94C8010E943D
:100294006F010E946F010E946F01A0E282DF88EC6F
:1002A40090E00197F1F7A8E290DFA4E08EDFA5E8E3
:1002B4008CDFA6E08ADFA2DF21960895AA930E942C
:1002C4007C01AC810E94B001AB810C94B0010E940E
:1002D400E700A3E0B0E00C94C801A0E30E94D300BF
:1002E40088EC90E00197F1F7089590989198889A96
:1002F400899815C089988898EE270000819B0895F5
:10030400809B089504D0899A02D0889AE1E06DE038
:1003140007C0899A889A03D08898F9DF89986BE195
:100324006A95F1F7089578E08898F1DF809BFECF15
:10033400EEDF889481990894889AF1DFEE1F7A950C
:1003440099F77A2F772311F4899801C0899ADFDF0E
:100354008898E5DF889ADBDF8998D9CF78E0AA0FFF
:1003640010F4899801C0899ADADF8898D0DF809BDD
:10037400FECFCDDF889A7A9591F78998C8DF88985F
:10038400CEDFE1E08199EE27889AC1CF109639F04B
:1003940080ED97E00197F1F7A8951197C9F70895B3
:00000001FF
